:100000000C9459000C9476000C9476000C947600B5
:100010000C9476000C9476000C9476000C94760088
:100020000C9476000C943A0E0C9476000C947600A6
:100030000C9476000C9452070C9476000C94760085
:100040000C9476000C9476000C9476000C94760058
:100050000C9476000C9476000C9476000C94760048
:100060000C9476000C947600000000000000001F45
:100070001F1F1F1F1F1F4C31362063646567726589
:100080006734003E6733323E3E63333200666F6C46
:100090006C6F77657200504944204C696E6500337F
:1000A000F720526F626F740020506F6C6F6C750098
:1000B000DD0F11241FBECFEFD8E0DEBFCDBF11E0B2
:1000C000A0E0B1E0E0E8F3E302C005900D92A835AE
:1000D000B107D9F711E0A8E5B1E001C01D92A53D37
:1000E000B107E1F70E9476020C94B3190C9400005A
:1000F000809100018F5F809300010895809101013C
:100100008F5F80930101089560E088E690E00E948F
:10011000DB0861E089E690E00E94DB0862E08AE6A5
:1001200090E00E94DB0863E08BE690E00E94DB0831
:1001300064E08CE690E00E94DB0865E08DE690E0EC
:100140000E94DB0866E08EE690E00E94DB080E94D9
:100150004E090895AAE0B0E0E0EBF0E00C94D2166E
:100160008C01D12C8AE0C82E95E6E92EF12CE7E12E
:10017000F1E0DE0111968C2D01900D928A95E1F748
:10018000F801819191918F01B7010E945F1681E082
:1001900090E08C0F9D1F680F791FFB0180810E94EA
:1001A000DE08D394F5E0DF12E2CF2A96E8E00C9463
:1001B000EE16AAE0B0E0EFEDF0E00C94D61680ED7C
:1001C00097E00E949B0F0E94840088EA90E00E94C2
:1001D000710961E080E00E94240B8FE990E00E94A9
:1001E000710983E890E00E94D60788EE93E00E94B0
:1001F000A40E0E944E0986E990E00E94710961E018
:1002000080E00E94240B8DE890E00E94710988EE46
:1002100093E00E94A40E80E10E94EA0C81111BC0B1
:100220000E9474048C010E944E09B801882777FD52
:100230008095982F0E94CC098EE391E00E9460097E
:1002400061E080E00E94240B81E491E00E9460095B
:1002500084E690E0DECF80E10E94CA0C88EE93E055
:100260000E94A40E0CEE1FEF0832110528F068ED75
:100270007FEF88E290E004C068E270E088ED9FEFD5
:100280000E94740C81E00E94370F84E190E00E948C
:10029000A40E0F5F1F4F0C33110531F760E070E0C3
:1002A00080E090E00E94740C80E10E94EA0C8111D1
:1002B0001AC061E0CE0101960E94490F8C010E9494
:1002C0004E09B80180E090E00E94CC0961E080E036
:1002D0000E94240BCE0101960E94AA0084E690E0C1
:1002E0000E94A40EE1CF80E10E94CA0C0E944E0938
:1002F00089E491E00E94600986E790E00E94D607B9
:100300000E94B5078111FCCF2A96E4E00C94F21606
:10031000809102018F5F809302010895EF92FF9216
:100320000F931F93CF93DF93FC017B018081918119
:10033000228133818C01021B130B178306832481D6
:100340003581280F391F35832483938382836AE0A4
:1003500070E00E947316EB01C90168E572E00E942B
:100360007316C60FD71F27E0209FC001219F900D55
:10037000112497FD0196959587958C0F9D1F918768
:100380008087D7012D913C91281739070CF4C901BA
:1003900044275527421B530B841795070CF4CA01B9
:1003A00097FF08C0820F931F938782873587248722
:1003B000B90108C033872287B901681B790B75879B
:1003C0006487C9010E94740CCDB7DEB7E6E00C94D7
:1003D000F016CF92DF92EF92FF92CF93DF93EC0172
:1003E00068817981882777FD8095982F0E940B1767
:1003F0006B017C016C817D81882777FD8095982F2A
:100400000E940B179B01AC01C701B6010E946A173D
:10041000688779878A879B87DF91CF91FF90EF90DC
:10042000DF90CF900895FC01248135812F5F3F4FED
:10043000358324830E94E9010895CF93DF93EC0173
:10044000288139818E819F81289FB001299F700D5D
:10045000389F700D1124882777FD8095982F0E9472
:100460000B176C877D878E879F87DF91CF910895CB
:10047000FC01268137812F5F3F4F378326830E94FF
:100480001D020895CF93DF93EC018DE491E00E946B
:10049000C5076A817B816F5F7F4F7B836A83882773
:1004A00077FD8095982F0E94CC091D821C82DF91D8
:1004B000CF910895CF93DF93EC0120E030E040EA44
:1004C00050E46C857D858E859F850E946A172885FE
:1004D00039854A855B850E94051787FF04C01B820A
:1004E0001A821F821E82DF91CF910895A8E2B0E0A8
:1004F000ECE7F2E00C94D2160E94D9007E0121E1D3
:10050000E20EF11C8EE0F70111928A95E9F78AEF6D
:1005100090E09A8389831C821B821E821D8218862A
:100520001F828E01015E1F4F8AE0F80111928A95A9
:10053000E9F76AEF70E08AEF90E00E94740C0E9485
:100540004E0961E0C8010E94490F6C0161E080E042
:100550000E94240BC8010E94AA008F8D98A18D3B98
:10056000924098F08FA198A58D3B924070F0CE01FB
:1005700001960E9438028D819E81181619066CF42E
:10058000CE0101960E94420208C0CE0101960E944F
:100590001302CE0101960E945A0280EDC81A87E02C
:1005A000D80ADA8AC98ABE016F5F7F4FC7010E94ED
:1005B0008E01C7CFECE7F0E080818F7D80830895C6
:1005C000811103C00E94DA02089580917C0080624C
:1005D00080937C00089580917C0085FB882780F9BA
:1005E00008959093040180930301089508950E9453
:1005F000EB02882321F08091790090E008958091AA
:1006000078009091790008950E94F7020895803251
:10061000A0F497E890937A0090917C00662311F003
:10062000906C02C09F779064907E982B90937C0092
:1006300080917A00806480937A00089560E00E943F
:100640000703089560E00E94070380917A0086FD09
:10065000FCCF0E94F70208950E9422030895A0E0B3
:10066000B0E0E5E3F3E00C94D216EB0160E00E9409
:10067000070380917A0086FDFCCF8E01C12CD12C1E
:10068000760180917A00806480937A0080917A006C
:1006900086FDFCCF0E94F702C80ED91EE11CF11C9A
:1006A0000150110971F7CE0196958795C034D10597
:1006B00038F48C0D9D1DBE010E945F16CB010EC04B
:1006C000A7019601280F391F411D511DCA01B9010B
:1006D0009E0140E050E00E948716C901CDB7DEB709
:1006E000E8E00C94EE160E942F03089564E170E098
:1006F00087E00E942F0308959093040180930301E3
:1007000008950F931F93CF930E94EB02C82F0E946E
:10071000DA0264E170E08EE10E942F0364E170E090
:100720008EE10E942F038C018C2F0E94E002B80101
:100730007695679580E090E06C54744D8E4E9F4F97
:10074000980140E050E00E948716C901CF911F91A7
:100750000F9108950E9481030895CF92DF92EF9246
:10076000FF92A0910301B09104019C010E943116F7
:100770006B017C010E94EB02882359F0C701B6018E
:1007800061587F4F8F4F9F4F2FEF30E040E050E098
:100790000AC0C701B60161507E4F8F4F9F4F2FEFA8
:1007A00033E040E050E00E948716C901FF90EF90CF
:1007B000DF90CF9008950E942F030E94AD0308950B
:1007C0000E94DB0308950E94AD03089564E170E088
:1007D00087E00E942F030E94AD0308950E94EB0260
:1007E000882321F08091790090E004C08091780006
:1007F000909179000E94AD0308950E94EE03089540
:1008000060E00E94070380917A0086FDFCCF0E9481
:10081000EE0308950E94000408951F93CF93DF9381
:100820000E94EB02182F0E94DA0264E170E086E079
:100830000E94DB03EC01812F0E94E0022CE02C9F40
:10084000C0012D9F900D11248A5792406DE070E0F9
:100850000E947316CB01DF91CF911F9108950E94E2
:100860000D0408951F93CF93DF930E94EB02182F7E
:100870000E94DA0264E170E086E00E94DB03EC0192
:10088000812F0E94E00224E12C9FC0012D9F900D3A
:1008900011248E529F4167E270E00E947316CB01D3
:1008A000DF91CF911F9108950E94320408951F9304
:1008B000CF93DF930E94EB02182F0E94DA026AE0C6
:1008C00070E086E00E94DB03EC01812F0E94E002D1
:1008D000CE01880F991F8C0F9D1F019696958795C5
:1008E000DF91CF911F9108950E94570408951F939F
:1008F000CF93DF930E94EB02182F0E94DA026AE086
:1009000070E086E00E94DB03EC01812F0E94E00290
:10091000CE01880F991F8C0F9D1FDF91CF911F91E2
:1009200008950E94770408950E9477040895909195
:100930005D01E0915801F0915901992311F08491E2
:1009400001C080812FEB280F2A3110F4805E0895BA
:10095000803249F49F012F5F3F4F3093590120931C
:100960005801EF2B31F708951F93CF93DF930E9427
:100970009704C0E0D0E01AE090ED980F9A30B8F4F8
:100980009E01129FE001139FD00D1124C80FD11DAD
:1009900087FDDA95E0978091580190915901019671
:1009A00090935901809358010E949704E5CFCE019E
:1009B000DF91CF911F910895089510926F0083E207
:1009C0008093800081E1809381001092820080E119
:1009D00097E2909389008093880010928B00109288
:1009E0008A00229A789408958F929F92AF92BF9234
:1009F000DF92EF92FF920F931F93CF93DF935C01EF
:100A00008B01D42E80915A01811105C081E0809321
:100A10005A010E94DD0410920E01B7FE05C0E89451
:100A2000B7F82AE0F22E02C0FF24F394E090810090
:100A30002E2D287FE22E48ECF49EC00111248A1549
:100A40009B05E0F4E50151E1A51657E2B50610F06B
:100A5000C0E1D7E2BE017695679580E090E06058EE
:100A6000794687469F4F4E01A12CB12CA5019401D8
:100A70000E94871659018E2D816024C0C8E2FC9E19
:100A8000C02D1124D0E0CA15DB0508F4E501BE0134
:100A9000769567959E0140E050E08AE0F81207C025
:100AA00080E090E0605E734481449F4F06C080E028
:100AB00090E060537D4E8C4E9F4F0E9487165901E7
:100AC0008E2D8260882E2AE0F21207C0CE01059694
:100AD0006AE070E00E945F16EB01C83E43E0D40775
:100AE00059F09801DE010E94311628EE33E040E013
:100AF00050E00E94A916890110926F008092810037
:100B0000B0928900A09288002091880030918900DD
:100B10004D2D403108F04FE080E190E0841B9109B9
:100B2000A90102C0569547958A95E2F750938B002C
:100B300040938A001093600100935F0186B38FEFAA
:100B400086BB81E080936F00DF91CF911F910F9161
:100B5000FF90EF90DF90BF90AF909F908F9008959F
:100B60000E94F4040895CF93DF93EB018F3F11F0BF
:100B7000411105C040E0BE0188EE93E043C08131E1
:100B800030F050EF580F503618F05FE501C050E0DC
:100B9000852F6CE00E945316682F74EF7603900146
:100BA0001124250F311D2C30310540F4F901EE0FD1
:100BB000FF1FEF5DFE4F2081318102C020E030E059
:100BC000873081F0082E02C0220F331F0A94E2F70B
:100BD000823028F0C90105966AE070E00CC0C901B6
:100BE00090580CC0C90126E0880F991F2A95E1F79B
:100BF000029665E070E00E945F16CB01403108F07C
:100C00004FE0BE010E94F404DF91CF910895A2E06D
:100C1000B0E0EDE0F6E00C94CA1690900D018091E2
:100C20005C01882321F060915B01611117C077247A
:100C3000739430ECA32E3DE5B32E4AE0642E54E0CD
:100C4000852E60EDC62E67E0D62E74E0E72EF12CDF
:100C500004EF11E0EFE04E2E512C15C070E040E0A3
:100C600088EE93E00E94F40410925B0117C186366F
:100C7000D4F5813609F4A9C07CF58C3309F460C041
:100C80008E3381F493940E949704209158013091FF
:100C900059012F5F3F4F30935901209358018536FA
:100CA00031F752C0813209F08BC080920D01D09291
:100CB0000C01C0920B01F0920A01E092090110931D
:100CC000080100930701509206014092050110921D
:100CD0005C0124E0922ED7CF8336A1F10CF478C0CA
:100CE00010E082E077C08D36C1F194F4873691F13F
:100CF00074F18C3609F064C00E94B404BC01909376
:100D00000A018093090180910B0190910C0151C05F
:100D10008237C9F14CF48F3609F052C00E94B404F6
:100D2000982E80930D01AFCF843781F1863709F07B
:100D300047C00E94B4049093060180930501A3CF9D
:100D40009A94A1CF10E020C010E084E043C010E0EE
:100D500085E040C010E087E03DC00E9497048C36DB
:100D600019F410925C0104C070925C0110925B0156
:100D700020915801309159012F5F3F4F3093590115
:100D80002093580180CF11E080E024C00E94B40479
:100D9000BC01C5010E945F16669EC001679E900D52
:100DA000112490930C0180930B01609109017091C3
:100DB0000A010E945F16709308016093070163CFD8
:100DC000109259011092580169C010E089E002C0E8
:100DD00010E08BE0082F9CE0999E000D11240E94EA
:100DE0009704982F977F933261F4209158013091A6
:100DF00059012F5F3F4F30935901209358010F5FE6
:100E0000EECF8D3271F420915801309159012F5F4E
:100E10003F4F309359012093580101500E9497048D
:100E2000F0CF60910701709108018153883050F430
:100E3000E0900B01F0900C010E94B404BC01C701CA
:100E40000E945F167B01F694E79469837A830E947F
:100E5000970469817A818E3269F42091580130912A
:100E600059012F5F3F4F30935901209358016E0D68
:100E70007F1DE9CF80915C01882339F09B01369575
:100E8000279520935B01621B710940910501112395
:100E900011F08FEF01C0802F0E94B3052296E0E190
:100EA0000C94E6161F920F920FB60F9211242F93F7
:100EB0003F934F935F936F937F938F939F93AF93E2
:100EC000BF93EF93FF9380915F01909160019C012C
:100ED000215031093093600120935F01892B11F576
:100EE00010926F00789480918100887F8160809358
:100EF000810080E197E290938900809388001092AE
:100F00008B0010928A0081E080930E01809158013D
:100F100090915901892B31F080915E01811102C0BD
:100F20000E940706FF91EF91BF91AF919F918F9122
:100F30007F916F915F914F913F912F910F900FBED5
:100F40000F901F9018950E94B305089580910E018F
:100F5000882349F081E02091580130915901232BD9
:100F600019F480E0089581E008950E94A60708958D
:100F700010926F00909359018093580110925D0177
:100F800010925B010E94070608950E94B807089519
:100F900010926F00909359018093580181E08093E3
:100FA0005D0110925B010E94070608950E94C80728
:100FB000089510926F00E1E8F0E08081887F816001
:100FC000808380E197E2909389008093880010925B
:100FD0008B0010928A0081E080930E0110925901DB
:100FE0001092580108950E94D907089580910E012A
:100FF000882331F08091580190915901892B49F44F
:1010000081E02091580130915901232B29F480E08F
:1010100008950E940706F4CF08950E94F6070895E8
:1010200080935E01811102C00E94F60708950E941C
:101030001008089580E090E0089581E090E06F93BB
:1010400064E06A95F1F76F910197C9F708950895E3
:101050000F931F93CF93DF931AB157985A98289AFA
:10106000C0E0D0E00E941D085C9A0E941D0809B1F2
:101070005C980E941D085C9A0E941D085C9824964A
:1010800007FF10C0AE0160E070E0809161019091B7
:101090006201A0916301B0916401481759076A0782
:1010A0007B0700F31AB9DF91CF911F910F9108953B
:1010B00095B1282F217030E0220F331F482F467042
:1010C00068E0469FA0011124242B9D7C292B25B983
:1010D0009BB188708295807F9F77892B8BB95C9AB2
:1010E0000E941D085C980E941D080895A0E0B0E0D1
:1010F000ECE7F8E00C94D316C82FD62EE42E80919E
:10110000C701811105C081E08093C7010E94E608F4
:101110000E94280814B1D5B1FAB00BB12898DD208F
:1011200011F05A9A01C05A9894B1926394B9579A9F
:1011300081E0E81629F08C2F82958F700E94580864
:101140008C2F8F700E945808FAB80BB914B9D5B912
:10115000CDB7DEB7E7E00C94EF1642E060E00E9406
:101160007608089542E061E00E9476080895A1E0C3
:10117000B0E0EDEBF8E00C94D4168C01660F660F2E
:10118000660FE12CF12C8E2D860F806469830E94FE
:10119000AD08F801EE0DFF1D84910E94B2088FEF9B
:1011A000E81AF80A6981E8E0EE16F10461F7219681
:1011B000E6E00C94F0160E94B70808950E94B20869
:1011C000089541E060E00E947608089580E197E28A
:1011D000A0E0B0E08093610190936201A09363016D
:1011E000B0936401529A209A549A8EE190E00E9442
:1011F000A40E83E00E94E10886E090E00E94A40E25
:1012000083E00E94E10882E090E00E94A40E83E067
:101210000E94E10882E090E00E94A40E82E00E9419
:10122000E10882E090E00E94A40E88E20E94AD08EE
:1012300088E00E94AD0881E00E94AD0886E00E942F
:10124000AD088CE00E94AD08089581E00E94AD08D1
:101250008091670190916801892BF9F060E0A0E22C
:10126000262F30E070910F018091100190E00197DE
:10127000789FA001799F500D1124241735074CF455
:10128000E0916701F0916801E20FF31FA0836F5FA7
:10129000E7CF109265011092660108950E9425091A
:1012A00008950E94B2080895CF93DF93EC018991CD
:1012B000882319F00E94B208FACFDF91CF910895E8
:1012C0000E9454090895CF93DF93EC01FE018491AD
:1012D000882321F00E94B2082196F8CFDF91CF91A8
:1012E00008950E94630908950E9454090895AAE090
:1012F000B0E0EDE7F9E00C94D2161AE02AE0C22E35
:10130000D12CE12CF12C062FA70196010E94871603
:10131000CA01B9011150E1E0F0E0EC0FFD1FE10F4F
:10132000F11D005D2AE0629F001911240083611500
:1013300071058105910539F71A3058F4E1E0F0E0C4
:10134000EC0FFD1FE10FF11D80810E94B2081F5FAD
:10135000F3CF2A96E8E00C94EE160E9477090895E0
:10136000CF92DF92EF92FF926B017C0197FF0BC04F
:10137000F094E094D094C094C11CD11CE11CF11CE9
:101380008DE20E94B208C701B6010E947709FF9062
:10139000EF90DF90CF9008950E94B00908958A30B1
:1013A00010F4805D01C0895C0E94B2080895CF935B
:1013B000C82F82958F700E94CF098C2F8F700E944A
:1013C000CF09CF9108950E94D7090895CF93C82FD0
:1013D000892F0E94D7098C2F0E94D709CF91089599
:1013E0000E94E60908951F93CF93DF93182FC8E05A
:1013F000D0E88D2F812311F081E301C080E30E94AA
:10140000B208D695C150A9F7DF91CF911F910895E9
:101410000E94F3090895A5E0B0E0E1E1FAE00C9440
:10142000D716182F80E8898380EC8A8384E98B8320
:1014300084ED8C83FE01E60FF11D8181810F6D83A8
:101440000E94AD08109365016D8160936601259639
:10145000E3E00C94F316FF920F931F93CF93DF9367
:10146000C82F8091670190916801892B49F48C2FD6
:10147000992787FD9095CDB7DEB7E5E00C94F1167E
:10148000CA3009F43EC0C830C1F480916501815072
:10149000809365018F3F51F4809166018150809364
:1014A000660180910F0181508093650180916601F2
:1014B0008F3FC1F51092660133C08C2F0E94B20895
:1014C000809166018823A1F090E0019740910F017F
:1014D000489F9001499F300D112480916501E09152
:1014E0006701F0916801E20FF31FE80FF11DC0835F
:1014F000809165018F5F8093650190910F01891341
:10150000B6CF40916601842F90E02091100130E029
:10151000215031098217930761F04F5F40936601B4
:101520001092650160916601809165010E940B0A2D
:101530009ECFD0E060911001862F90E002972D2F72
:10154000332727FD3095281739078CF56D2F80E05C
:101550000E940B0AF12C20910F01F21630F50F2D8D
:1015600010E03D2F3203C0011124E0916701F0919A
:101570006801E00FF11FE80FF91F80810E94B20897
:10158000E0916701F091680120910F013D2F320336
:10159000C0011124E00FF11FE80FF91FDF01A20FB6
:1015A000B11D8C918083F394D6CFDF5FC3CF6230BF
:1015B00040F460911001615080E00E940B0AD0E07D
:1015C00039C0625080E00E940B0AD0E080E2F82E21
:1015D00040910F01D41768F70D2F10E020911001F2
:1015E00030E022503109429FC001439F900D1124E9
:1015F000E0916701F0916801E00FF11FE80FF91F1A
:1016000080810E94B2082091100130E022503109FF
:1016100040910F01429FC001439F900D1124E09122
:101620006701F0916801E00FF11FE80FF91FF082E8
:10163000DF5FCECF80910F01D81708F071CF80E225
:101640000E94B208DF5FF6CF0E940B0A0895813036
:1016500011F48FE001C08EE00E94AD0808950E9451
:10166000270B08958CE00E94AD0808950E94320B6C
:101670000895CF93DF93D82FC62FCC2349F0D111F3
:1016800002C080E101C084E10E94AD08C150F5CFE5
:10169000DF91CF9108950E94390B08950F931F9306
:1016A000CF93DF93082FEA01162F112361F0011168
:1016B00002C088E101C08CE10E94AD08CE010E9409
:1016C000A40E1150F2CFDF91CF911F910F91089589
:1016D0000E944E0B089580916701909168010097D8
:1016E00011F00E94B61820910F018091100190E036
:1016F0000197AC01249FC001259F900D11240E94E9
:101700001E189093680180936701892B09F160E0AE
:10171000A0E2262F30E070910F018091100190E03F
:101720000197789FA001799F500D11242417350748
:101730004CF4E0916701F0916801E20FF31FA08380
:101740006F5FE7CF6AE178E08BE29AE00E9445198B
:1017500008950E946B0B089580930F016093100110
:101760000E946B0B089580930F01609310010E94FB
:101770006B0B0895883058F491E001C0990F8A9559
:10178000EAF7892FAAE2B0E0EBE2F0E021C08E3068
:1017900060F498EF980F81E001C0880F9A95EAF7FE
:1017A000A4E2B0E0E5E2F0E013C0853160F492EF2E
:1017B000980F81E001C0880F9A95EAF7A7E2B0E0A0
:1017C000E8E2F0E005C080E0A0E0B0E0E0E0F0E0BA
:1017D0006F3F19F49081982709C0662319F0908112
:1017E000982B04C02081982F9095922390839C91F0
:1017F000982B9C930895089583EF8093B00084BD47
:1018000082E08093B10085BD1092B4001092B300C5
:1018100018BC17BC60E086E00E94BA0B60E085E06F
:101820000E94BA0B60E08BE00E94BA0B60E083E09C
:101830000E94BA0B08958091C801811105C081E012
:101840008093C8010E94FC0B0895CF93DF93EC01B5
:101850000E941B0CD7FF05C0D195C195D10981E02D
:1018600001C080E0CF3FD10519F014F0CFEFD0E0F8
:10187000882319F018BCC7BD02C0C8BD17BCDF91D2
:10188000CF9108950E94250C0895CF93DF93EC012A
:101890000E941B0CD7FF05C0D195C195D10981E0ED
:1018A00001C080E0CF3FD10519F014F0CFEFD0E0B8
:1018B000882329F01092B400C093B30004C0C093F1
:1018C000B4001092B300DF91CF9108950E94450CAF
:1018D0000895CF93DF93EB010E94250CCE010E9467
:1018E000450CDF91CF9108950E94690C08950895E9
:1018F00084B18D7C84B985B1826385B985E090E03F
:101900006F9364E06A95F1F76F910197C9F70895B5
:101910008091C901811105C081E08093C9010E94B5
:10192000780C08951F93CF93DF93182F0E94880C93
:10193000C12FD0E023B130E0209530952C233D23FA
:10194000232BC1F38AE090E00E94A40E23B130E083
:10195000209530952C233D23232B61F383B1809573
:101960008123DF91CF911F9108950E94920C0895D9
:10197000CF93C82F0E94880C83B18C23E9F38AE0AF
:1019800090E00E94A40E83B18C23B1F383B18C2329
:10199000CF9108950E94B80C0895CF930E94920CA5
:1019A000C82F0E94B80C8C2FCF9108950E94CD0CA7
:1019B0000895A1E0B0E0EFEDFCE00C94D816898327
:1019C0000E94880C93B19095898189232196E2E049
:1019D0000C94F4160E94D90C0895A4E0B0E0E3EF53
:1019E000FCE00C94D516182FF3B0F0940E94090F68
:1019F00069837A838B839C830E94880C2091740175
:101A000069817A818B819C81213009F138F0223003
:101A100009F453C0233009F463C07EC0212F30E0A5
:101A20004F2D50E04095509524233523232B09F466
:101A300073C0F094F122F092730160936F01709380
:101A40007001809371019093720181E063C00091F5
:101A50006F01109170012091710130917201DC01D0
:101A6000CB01801B910BA20BB30B0F97A105B10506
:101A700008F452C0409173018F2D90E080959095AD
:101A8000242F30E082239323892BA1F082E08093DE
:101A90007401F094F422F09273013EC030E0812F83
:101AA00090E04F2D50E040955095842395232817C2
:101AB000390791F1109274012FC0209173013F2DCD
:101AC000322361F323E02093740130937301609318
:101AD0006F017093700180937101909372011CC02B
:101AE00000916F011091700120917101309172018C
:101AF000DC01CB01801B910BA20BB30B0F97A1054F
:101B0000B10550F0809173018F2119F0109274018A
:101B100004C082E08093740180E02496E5E00C9498
:101B2000F1160E94ED0C0895A4E0B0E0EAE9FDE0B2
:101B30000C94D516182FF3B00E94090F69837A838D
:101B40008B839C830E94880C20916E0169817A812D
:101B50008B819C81213009F138F0223009F453C087
:101B6000233009F463C07EC0212F30E04F2D50E0B8
:101B70004095509524233523232B09F473C0F0940A
:101B8000F122F0926D016093690170936A01809374
:101B90006B0190936C0181E063C000916901109129
:101BA0006A0120916B0130916C01DC01CB01801B3B
:101BB000910BA20BB30B0F97A105B10508F452C00E
:101BC00040916D018F2D90E080959095242F30E00D
:101BD00082239323892BA1F082E080936E01F094FD
:101BE000F422F0926D013EC030E0812F90E04F2D45
:101BF00050E040955095842395232817390791F19B
:101C000010926E012FC020916D01322F3F2161F3A0
:101C100023E020936E0130936D016093690170930E
:101C20006A0180936B0190936C011CC00091690163
:101C300010916A0120916B0130916C01DC01CB01A4
:101C4000801B910BA20BB30B0F97A105B10550F0B0
:101C500080916D018F2119F010926E0104C082E015
:101C600080936E0180E02496E5E00C94F1160E94CA
:101C7000940D08952F928F939F932FB680917C019E
:101C800090917D01019680937C0190937D0190E07D
:101C900080917E01891F80937E01909176019C5FE7
:101CA000909376018091750180519742C0F0909396
:101CB000760180937501809177019091780101966A
:101CC000809377019093780190E080917901891F4A
:101CD0008093790180917A01891F80937A012FBEC8
:101CE0009F918F912F9018956F5F7F4F8F4F9F4FD0
:101CF000660F771F881F991F25E030E040E050E015
:101D00000E948716CA01B90108956F5F7F4F8F4FF8
:101D10009F4F660F771F881F991F25E030E040E036
:101D200050E00E948716CA01B901089528EE33E0F9
:101D3000019748F0F9016F9364E06A95F1F76F91AC
:101D40003197C9F7F5CF08950E94960E0895E0E700
:101D5000F0E080818E7F8083A0EBB0E08C91836087
:101D60008C93A1EBB0E08C91807F8C938C918260FE
:101D70008C93B89A80818160808378940895809153
:101D8000CA01811105C081E08093CA010E94A70E9B
:101D900008950E94BF0E809170008E7F8093700026
:101DA0002091B20080917B0190917C01A0917D01F6
:101DB000B0917E01B89903C0BC01CD010DC0209146
:101DC000B20060917B0170917C0180917D019091C6
:101DD0007E017F5F8F4F9F4F622B209170002160AB
:101DE0002093700008950E94C90E08950E94BF0EAE
:101DF000E0E7F0E080818E7F8083609177017091D1
:101E000078018091790190917A012081216020836D
:101E100008950E94F60E08950E94BF0EE0E7F0E0DC
:101E200080818E7F808310927701109278011092CA
:101E3000790110927A0110927601109275018081D9
:101E40008160808308950E940C0F0895462FBC0185
:101E50008FE791E00E94411308958FE791E00E947F
:101E60008C1008958FE791E00E9470100895682FFC
:101E70008FE791E00E94A81408958FE791E00E94F7
:101E8000A7100895462FBC018FE791E00E94D4145B
:101E90000895462F20E0BC018FE791E00E948A154B
:101EA0000895462F21E0BC018FE791E00E948A153A
:101EB000089580917F019091800108958091810122
:101EC00090918201089580918301909184010895F9
:101ED000809185019091860108950F93CF93DF93B0
:101EE00000D000D01F92CDB7DEB79C0185E0E9E3BA
:101EF000F1E0DE01119601900D928A95E1F76623DB
:101F000011F00FEF01C003E145E0BE016F5F7F4FAD
:101F10008FE791E00E94E2108FE791E00E9470103D
:101F20000E940C0F0F900F900F900F900F90DF9169
:101F3000CF910F91089560E00E946D0F089561E0C8
:101F40000E946D0F0895462FBC018FE791E00E941B
:101F5000411308958FE791E00E948C1008958FE758
:101F600091E00E94701008958FE791E00E94A814FC
:101F700008958FE791E00E94A71008958FE791E000
:101F80000E94D41408958FE791E00E948A15089565
:101F900080917F01909180010895809181019091BD
:101FA0008201089580918301909184010895809128
:101FB000850190918601089508958FE791E00E9430
:101FC000131608956F9364E06A95F1F76F91019786
:101FD000C9F70895FC0111821082138212821582C2
:101FE00014821682683068F489E290E091838083DD
:101FF0008BE290E0938382838AE290E095838483EE
:102000001FC06E3070F483E290E09183808385E29C
:1020100090E09383828384E290E095838483685088
:102020000FC0653198F486E290E09183808388E266
:1020300090E09383828387E290E0958384836E505F
:1020400081E001C0880F6A95EAF786830895E091E0
:10205000C501F091C601808191810895E091C5018B
:10206000F091C601828193810895E091C501F091BC
:10207000C601848195810895E091C501F091C60162
:10208000868197810895A7E0B0E0E9E4F0E10C943F
:10209000D6168C01FC0111821082138212821582E5
:1020A000148217821682613118F080E1808702C0A5
:1020B000FC016087F801208B642FCE0101960E94FD
:1020C000EA0F8F81F80181878B819C8193878287BA
:1020D0008D819E81958784872796E4E00C94F21683
:1020E000FC01A485B585109779F08C919185892B99
:1020F0008C93A285B3859C918185809589238C934F
:1021000088EC90E00E94E20F08958091C5019091C3
:10211000C6010E9470100895FC01A485B585109732
:1021200071F08C919185892B8C93A285B3858C91CC
:102130009185892B8C9388EC90E00E94E20F0895A2
:102140008091C5019091C6010E948C100895FC01F8
:1021500020E08085281770F5A081B181109741F0AB
:1021600086859785A20FB11DA20FB11D8D939C93FB
:10217000A481B581109741F086859785A20FB11D86
:10218000A20FB11D8D939C93A281B381109731F062
:10219000A20FB11DA20FB11D1D921C92A681B78185
:1021A000109731F0A20FB11DA20FB11D1D921C920C
:1021B0002F5FCFCF08958091C5019091C6010E94F5
:1021C000A7100895A7E0B0E0E8EEF0E10C94CB167C
:1021D0007C014B01642F3901402F20E00E94431005
:1021E00087010F5B1F4FF80110826701F2E4CF0EE9
:1021F000D11CF60110825701F3E4AF0EB11CF501BA
:102200001082F70177866686512CF7018085581673
:1022100050F5652C712CF401E60DF71D6081CE019F
:1022200001960E94EA0F2F81F701E60DF71D218B21
:1022300089819A81F301EE0FFF1FEE0DFF1D92A31E
:1022400081A38332910511F4F80108C0863291050B
:1022500011F4F60103C0899721F4F5018081822BE6
:1022600080835394D2CF2796EFE00C94E716AF9279
:10227000BF92CF92DF92EF92FF920F93CF93DF93B3
:102280001F92CDB7DEB77C016A01022F84E490E093
:1022900069830E941E185C016981009759F09601BC
:1022A000462FB7010E94E210B092C601A092C5016C
:1022B00081E001C080E00F90DF91CF910F91FF90FE
:1022C000EF90DF90CF90BF90AF9008950F930E9452
:1022D000E2100F910895A0E0B0E0E1E7F1E10C9485
:1022E000CD16EC015B016C0181E4C80ED11CF60136
:1022F00080807E01F2E4EF0EF11CF70170808E0108
:102300000D5B1F4FF801908080E09885891748F495
:10231000F501E80FF11DE80FF11D118210828F5FAA
:10232000F4CF84B1F6019081892B84B987B1F7018C
:102330009081892B87B98AB1F8019081892B8AB95C
:1023400085B1F6019081892B85B988B1F70190811B
:10235000892B88B98BB1F8019081892B8BB98AE0E0
:1023600090E00E94E20F94B1F6018081809589236C
:1023700084B997B1F70180818095892387B99AB193
:10238000F8018081809589238AB995B1F601808111
:102390008095892385B998B1F7018081809589233B
:1023A00088B99BB1F8018081809589238BB9E09031
:1023B000B000D090B1008091B00083608093B000F5
:1023C00082E08093B1004091B20080E090E02E85E1
:1023D0003F858217930720F5C090B2002C2D241B57
:1023E000820F911D03B1081132C0F6B0F7102FC053
:1023F00029B129112CC010C0212F30E0A901440FB0
:10240000551FF501E40FF51F60817181672B21F1E4
:102410001F5F2885121780F37F2C802E4C2DD7CF7D
:10242000E092B000D092B10020E08885281730F506
:10243000F501E20FF11DE20FF11D80819181892BE1
:1024400021F48E859F85918380832F5FEECF03B12A
:10245000F6B099B010E0DDCFDE01A40FB51F919664
:102460000D90BC91A02D4C91DE01A20FB31F51968F
:102470002C91422369F691838083CACFCDB7DEB712
:10248000EDE00C94E916CF92DF92FF920F931F9329
:10249000CF93DF931F92CDB7DEB76C01162F642F59
:1024A000F22E402F21E079830E944310D6019196AD
:1024B000FC92919792961C92929718966C91E12FAC
:1024C0007981F72F80E090E021E030E08617C8F4B2
:1024D0008F017191A601480F591FDA0151967C9323
:1024E000A901D8010C9002C0440F551F0A94E2F7CD
:1024F000D60192965C919297542B92965C9301969A
:10250000E5CFF60182A18F7382A38FEF93E09787C7
:1025100086870F90DF91CF911F910F91FF90DF90F1
:10252000CF900895CF92DF92EF92FF920F93CF93C7
:10253000DF9300D0CDB7DEB77C01022F83E290E0BD
:102540004A8369830E941E186C014A816981009741
:1025500059F0242F462FB7010E944312D092C60192
:10256000C092C50181E001C080E00F900F90DF9123
:10257000CF910F91FF90EF90DF90CF9008950F9340
:102580000E9443120F910895EF92FF920F931F93B1
:10259000CF93DF93FC019B01F0907C0000917A00C7
:1025A00047B118B180917A0086FDFCCF80E090851C
:1025B000891748F4D901A80FB11DA80FB11D1D92AC
:1025C0001C928F5FF4CF97B182A18095892387B940
:1025D00098B182A18095892388B987E880937A0091
:1025E000E12C81A1E81610F0E12C29C050E0808593
:1025F000581718F5A52FB0E0EF01CA0FDB1F898926
:10260000806480937C0080917A00806480937A005B
:1026100080917A0086FDFCCF6091780070917900FE
:10262000AA0FBB1FA20FB31F8D919C911197860F0C
:10263000971F8D939C935F5FDACFE394D2CF808511
:10264000E816A0F4E901CE0DD11DCE0DD11D61A17A
:1026500070E0CB0195958795A881B9818A0F9B1F62
:102660000E945F1679836883E394E9CFF0927C003F
:1026700000937A0018B947B9CDB7DEB7E6E00C94FD
:10268000F016A0E2B0E0E7E4F3E10C94D3168C017D
:102690007B01D42E8FEF840F823018F4C8010E9482
:1026A0008C10D80150968C91B701811110C0C801CF
:1026B0000E946B11C8010E947010B2E0DB123AC098
:1026C000BE016F5F7F4FC8010E946B110FC0C80130
:1026D0000E94C412C8010E947010E2E0DE122AC0FB
:1026E000BE016F5F7F4FC8010E94C41240E0F80135
:1026F00080854817F8F4842F90E0880F991FF70120
:10270000E80FF91F21E030E02C0F3D1F820F931FCF
:10271000D8011E962D913C911F97DC018D919C91C3
:10272000281B390B80819181820F931F91838083B5
:102730004F5FDDCFA096E7E00C94EF16462FBC016B
:102740008091C5019091C6010E94411308952F9276
:102750003F925F926F927F928F929F92AF92BF92C1
:10276000CF92DF92EF92FF920F931F93CF93DF935D
:10277000CDB7DEB7C056D1090FB6F894DEBF0FBE95
:10278000CDBF8C014B015A01522EDA018D919C91E3
:10279000892B31F0F40180819181892BF1F424C0DF
:1027A000D80118968C9190E0880F991F0E941E18EE
:1027B000F50191838083009709F4B1C0FC0120E00A
:1027C00030E0D80118968C9190E02817390714F75B
:1027D000119211922F5F3F4FF4CFE12CF12C6E013B
:1027E000B1E2CB0ED11C21C0F801808590E0880FAA
:1027F000991F0E941E18D4018D939C93009709F491
:102800008EC0FC0120E030E0D80118968C9190E059
:102810002817390714F7D8011E968D919C911F97A0
:10282000819391932F5F3F4FEFCF452DBE016F5B9B
:102830007F4FC8010E944113F8016084712CFE0192
:10284000EF5BFF4FC6019E012F5F3F4F190120E054
:1028500030E0261537054CF5E114F10489F0DC0170
:102860006D917C91408151816417750748F0D101C9
:102870006D917C91408151814617570748F00DC0FA
:1028800040815181DC014D935C93E114F10479F7AF
:1028900040815181D1014D935C932F5F3F4FB2E056
:1028A0002B0E311C32960296D4CFEFEFEE1AFE0AB1
:1028B000FAE0EF16F10409F0B8CF9E012F5F3F4F09
:1028C0007901360180E090E0F801208530E0821740
:1028D00093072CF5D7012D913D917D01B3016C1922
:1028E0007D09D501ED91FC91E60FF71F40815181E3
:1028F0004217530710F431832083F3012191319162
:102900003F01D401ED91FC91E60FF71F4081518109
:102910002417350710F4318320830196D5CFC05A90
:10292000DF4F0FB6F894DEBF0FBECDBFDF91CF9162
:102930001F910F91FF90EF90DF90CF90BF90AF90DD
:102940009F908F907F906F905F903F902F90089511
:102950001F93CF93DF93EC01162F8FEF860F8230FA
:1029600018F0662359F014C021E0AE014E5F5F4FAE
:10297000BE01CE010E94A713123051F4AE014A5F8E
:102980005F4FBE016C5F7F4F20E0CE010E94A71316
:10299000DF91CF911F910895682F8091C50190918B
:1029A000C6010E94A8140895A0E0B0E0EAEDF4E1A9
:1029B0000C94D116EC018B01B42E842F8D7F51F431
:1029C0008C819D81892B09F497C08E819F81892BF1
:1029D00009F492C08FEF8B0D823050F48881998179
:1029E000892B09F489C08A819B81892B09F484C0D1
:1029F0004B2DB801CE010E944113780100E010E098
:102A0000C12CD12C888590E0C816D9060CF074C072
:102A100081E0B8120AC0EA81FB81E00FF11F01904A
:102A2000F081E02DA881B9810DC08C819D812E811E
:102A30003F81B1100CC0F901E00FF11F0190F0814E
:102A4000E02DDC01A00FB11F8D919C9128C0FC01ED
:102A5000E00FF11F40815181E881F981E00FF11F02
:102A600080819181EE85FF854817590710F4CF01C9
:102A700004C08E0F9F1F841B950BD901A00FB11F9F
:102A80002D913C91AA81BB81A00FB11F4D915C910A
:102A90002417350720F0E40FF51FE21BF30BE81BAA
:102AA000F90BA9F0D7012D913C9140E050E0281B93
:102AB000390B41095109A8EEB3E00E9440169F016D
:102AC00040E050E00E94A91637FD0AC002C020E095
:102AD00030E0293EB3E03B072CF028EE33E002C0A3
:102AE00020E030E0F701219331937F01FFEFCF1A0F
:102AF000DF0A0E5F1F4F86CFCDB7DEB7E9E00C943B
:102B0000ED16462FBC018091C5019091C6010E942F
:102B1000D4140895A0E0B0E0E0E9F5E10C94C81603
:102B2000EC018B01822E0E94D4142884E801412CF0
:102B3000512C320100E010E0C12CD12C7601312C57
:102B4000912C88EEA82E83E0B82E921421F1E99101
:102B5000F991882021F0C5018E1B9F0BFC01E93CF7
:102B6000F10524F4E333F10574F002C03324339407
:102B7000DF01A30192010E944B16C60ED71EE81E6C
:102B8000F91E0E0F1F1F939498EE490E93E0591EE5
:102B9000611C711CDACF31101EC0492D50E041502C
:102BA000510924EF31E0429FC001439F900D529F95
:102BB000900D11242091C3013091C40128173907C9
:102BC000B4F088EE93E0489F9001499F300D589FE4
:102BD000300D11240EC0980140E050E0C701B6014D
:102BE0000E9487163093C4012093C30102C020E0E5
:102BF00030E0C901CDB7DEB7E2E10C94E416462F10
:102C000020E0BC018091C5019091C6010E948A1507
:102C10000895462F21E0BC018091C5019091C60125
:102C20000E948A150895CF93DF93EC018A819B81DE
:102C3000009711F00E94B6188E819F81009711F0C5
:102C40000E94B61888819981009711F00E94B618E9
:102C50008C819D81009711F00E94B618DF91CF9171
:102C60000895A29FB001B39FC001A39F700D811D65
:102C70001124911DB29F700D811D1124911D089585
:102C80000E943116A59F900DB49F900DA49F800DBA
:102C9000911D11240895B7FF0C9440160E94401610
:102CA000821B930B0895991B79E004C0991F961716
:102CB00008F0961B881F7A95C9F780950895AA1B7E
:102CC000BB1B51E107C0AA1FBB1FA617B70710F017
:102CD000A61BB70B881F991F5A95A9F78095909549
:102CE000BC01CD01089597FB072E16F4009407D080
:102CF00077FD09D00E945F1607FC05D03EF4909541
:102D000081959F4F0895709561957F4F0895A1E239
:102D10001A2EAA1BBB1BFD010DC0AA1FBB1FEE1F55
:102D2000FF1FA217B307E407F50720F0A21BB30BA0
:102D3000E40BF50B661F771F881F991F1A9469F71C
:102D400060957095809590959B01AC01BD01CF0178
:102D50000895052E97FB1EF400940E94C01657FD9F
:102D600007D00E94871607FC03D04EF40C94C016BF
:102D700050954095309521953F4F4F4F5F4F0895A7
:102D800090958095709561957F4F8F4F9F4F0895D7
:102D90002F923F924F925F926F927F928F929F926B
:102DA000AF92BF92CF92DF92EF92FF920F931F9359
:102DB000CF93DF93CDB7DEB7CA1BDB0B0FB6F8940A
:102DC000DEBF0FBECDBF09942A88398848885F844A
:102DD0006E847D848C849B84AA84B984C884DF80BB
:102DE000EE80FD800C811B81AA81B981CE0FD11D9F
:102DF0000FB6F894DEBF0FBECDBFED010895EE0F04
:102E0000FF1F0590F491E02D099440D008F481E073
:102E10000895E89409C097FB3EF4909580957095CD
:102E200061957F4F8F4F9F4F9923A9F0F92F96E916
:102E3000BB279395F695879577956795B795F1118B
:102E4000F8CFFAF4BB0F11F460FF1BC06F5F7F4F28
:102E50008F4F9F4F16C0882311F096E911C077233A
:102E600021F09EE8872F762F05C0662371F096E843
:102E7000862F70E060E02AF09A95660F771F881F12
:102E8000DAF7880F9695879597F90895990F0008B6
:102E9000550FAA0BE0E8FEEF16161706E807F9072C
:102EA000C0F012161306E407F50798F0621B730BC7
:102EB000840B950B39F40A2661F0232B242B252B48
:102EC00021F408950A2609F4A140A6958FEF811DEB
:102ED000811D08950BD078C069D028F06ED018F00D
:102EE000952309F05AC05FC01124A2C07ED0A0F380
:102EF000959FD1F3950F50E0551F629FF001729F8F
:102F0000BB27F00DB11D639FAA27F00DB11DAA1FAD
:102F1000649F6627B00DA11D661F829F2227B00DFA
:102F2000A11D621F739FB00DA11D621F839FA00D85
:102F3000611D221F749F3327A00D611D231F849FD5
:102F4000600D211D822F762F6A2F11249F5750402C
:102F50008AF0E1F088234AF0EE0FFF1FBB1F661FC7
:102F6000771F881F91505040A9F79E3F510570F080
:102F700014C05EC05F3FECF3983EDCF38695779516
:102F80006795B795F795E7959F5FC1F7FE2B880F7B
:102F9000911D9695879597F9089597F99F6780E811
:102FA00070E060E008959FEF80EC089500240A949B
:102FB0001616170618060906089500240A94121614
:102FC0001306140605060895092E0394000C11F447
:102FD000882352F0BB0F40F4BF2B11F460FF04C0F4
:102FE0006F5F7F4F8F4F9F4F089557FD9058440F4D
:102FF000551F59F05F3F71F04795880F97FB991F58
:1030000061F09F3F79F08795089512161306140614
:10301000551FF2CF4695F1DF08C0161617061806A1
:10302000991FF1CF86957105610508940895E8947C
:10303000BB2766277727CB0197F90895CF93DF93B6
:103040008230910510F482E090E0E091CD01F091A2
:10305000CE0120E030E0A0E0B0E0309739F14081CF
:10306000518148175907B8F04817590771F4828100
:103070009381109729F013969C938E9312972CC0EE
:103080009093CE018093CD0127C02115310531F0F9
:103090004217530718F0A901DB0101C0EF019A01A3
:1030A000BD01DF010280F381E02DD7CF211531056D
:1030B000F9F0281B390B2430310580F48A819B817B
:1030C0006115710521F0FB019383828304C0909305
:1030D000CE018093CD01FE01329644C0FE01E20F85
:1030E000F31F8193919322503109398328833AC089
:1030F0002091CB013091CC01232B41F4209113017D
:10310000309114013093CC012093CB012091110117
:10311000309112012115310541F42DB73EB7409190
:10312000150150911601241B350BE091CB01F09154
:10313000CC01E217F307A0F42E1B3F0B2817390729
:1031400078F0AC014E5F5F4F2417350748F04E0F03
:103150005F1F5093CC014093CB018193919302C0A8
:10316000E0E0F0E0CF01DF91CF910895CF93DF93BE
:10317000009709F487C0FC01329713821282C09134
:10318000CD01D091CE01209781F420813181280F8B
:10319000391F8091CB019091CC018217930779F56B
:1031A000F093CC01E093CB016DC0DE0120E030E074
:1031B000AE17BF0750F412964D915C9113979D0185
:1031C0004115510509F1DA01F3CFB383A2834081A0
:1031D0005181840F951F8A179B0771F48D919C91E3
:1031E0001197840F951F02969183808312968D917B
:1031F0009C911397938382832115310529F4F093D1
:10320000CE01E093CD013EC0D9011396FC93EE931D
:1032100012974D915D91A40FB51FEA17FB0779F442
:1032200080819181840F951F0296D90111969C93FC
:103230008E938281938113969C938E931297E0E0F4
:10324000F0E08A819B81009719F0FE01EC01F9CF33
:10325000CE01029628813981820F931F2091CB01E4
:103260003091CC012817390769F4309729F410926E
:10327000CE011092CD0102C013821282D093CC01F4
:10328000C093CB01DF91CF9108950F931F93CF93FC
:10329000DF93EC018B01009731F46115710519F48E
:1032A00080E090E038C06EE070E081E090E00E9445
:1032B0009019FC010097A1F380E8838301151105A3
:1032C00071F01387028781E883838091CF01909109
:1032D000D001892B21F4F093D001E093CF01209706
:1032E000C9F0D187C0878381826083838091D101B7
:1032F0009091D201892B71F4F093D201E093D10126
:103300008091D3019091D401892B21F4F093D401C1
:10331000E093D301CF01DF91CF911F910F910895D9
:103320000F931F93CF93DF93869F8001879F100D8C
:10333000969F100D1124C8010E941E18EC010097E1
:1033400029F0A80160E070E00E94AC19CE01DF9185
:10335000CF911F910F910895DC0101C06D934150F1
:103360005040E0F7089510E0C0EBD0E004C0FE014B
:103370000E9401172296C23BD107C9F7F894FFCFEC
:1033800001010188130F00F4010400D007040108B3
:10339000020000D501200020000001020304050600
:1033A000FF9C01B501CF01EA01070226024702692D
:1033B000028E02B502DE020A030E0F1011126D56C4
:1033C000005072657373204200476F21003E6733DF
:0833D000323E3E63333200007F
:00000001FF
